:030000000208876C
:0C088700787FE4F6D8FD75810702084870
:1008480012089312080012086B7F4812089F7F0253
:100858007E001208287F4512089F7F027E0012083A
:030868002880E302
:0C089300758920758DFDD28E759853225A
:100800007F1B12089F1208247F5B12089F12082486
:100810007F3212089F1208247F4A12089F7F017EB0
:0408200000020828A2
:10086B007F1B12089F1208247F5B12089F1208241B
:0C087B007F4812089F7F017E00020828C1
:08089F003099FD8F99C29922E6
:040824007F017E00D2
:10082800E4FDFCD3ED9FEC9E5015E4FBFA0BBB00F6
:0F083800010AEB64794A70F50DBD00010C80E4F4
:01084700228E
:00000001FF
