:060000000A128A11882F8C
:100F100083010A128A11AC2F831203138C1E912FA6
:100F2000922F8C2F1A08F0007008080024308316C6
:100F3000031398001930990090308312031398001E
:100F40000800F000831203130C1EA72FA82FA22F56
:100F5000700899000C1208000A128A1196270A12CA
:100F60008A110A128A118C270A128A11F70001309D
:100F7000F5000030F6000A128A11D3270A128A11EE
:100F800077080A128A11A1270A128A110130F50086
:100F90000030F6000A128A11D3270A128A11B12FE3
:100FA0000A128A1100280030F1000030F200F52FFB
:100FB0000030F3000030F4000130F3070318F40AA6
:100FC0000030F4077408803AF00080307002031D8E
:100FD000EB2F79307302031CEE2FEF2FDC2F013043
:100FE000F1070318F20A0030F20772087602031DB7
:100FF000FB2F710875020318FE2FFF2FD82F080052
:00000001FF
