:02000000802A54
:0100030032CA
:03000B0002008769
:0100130032BA
:01001B0032B2
:0100230032AA
:10002B0032517B7540C031BF516875414331D77533
:10003B00414F31D775415531D775414E31D7754148
:10004B005431D775414531D775415231D7758160E0
:10005B001173D2AF75303075313075323075333036
:10006B00319A313F315F80F875380011792243891D
:10007B0001758A66758CFCD28CD2A922C0E0C0D0E7
:10008B00C083C0821179119CD082D083D0D0D0E0B4
:10009B0032E538B4000DC2A0D2A1D2A2D2A37538DA
:1000AB0001213EB40105753802213EB402057538B5
:1000BB0003213EB40305753804213EB4040DD2A0D0
:1000CB00C2A1D2A2D2A3753805213EB4050575385D
:1000DB0006213EB40605753807213EB40705753871
:1000EB0008213EB4080DD2A0D2A1C2A2D2A375386A
:1000FB0009213EB4090575380A213EB40A05753845
:10010B000B213EB40B0575380C213EB40C0DD2A05F
:10011B00D2A1D2A2C2A375380D213EB40D057538FC
:10012B000E213EB40E0575380F213EB40F00753805
:10013B0000213E227536027535FF7534FFD534FD2F
:10014B00D535F7D536F1227535557534FFD534FDD8
:10015B00D535F7220530E530B43A00500122753021
:10016B00300531E531B43A0050012275313005329A
:10017B00E532B43A005001227532300533E533B421
:02018B003A0C2C
:10018D00753000753100753200753300227540876A
:10019D0031BF516831EF75408631BF5168510775D8
:1001AD00408531BF5168511F75408431BF51685131
:1001BD003722C281C282854042514F515EE54023B4
:1001CD00232323F542514F515E22D281C2828541B4
:1001DD0042514F515EE54123232323F542514F51A7
:1001ED005E22D281C282853042514F515EE530236D
:1001FD00232323F542514F515E22D281C282853194
:10020D0042514F515EE53123232323F542514F5186
:10021D005E22D281C282853242514F515EE5322338
:10022D00232323F542514F515E22D281C282853361
:10023D0042514F515EE53323232323F542514F5154
:10024D005E22E54254F0F539E580540F4539F580CD
:10025D0022D2830000000000C2832275360275355C
:10026D003F7534FFD534FDD535F7D536F1225168BC
:10027D005168516875400331BF516875400331BFF6
:10028D00516875400331BF516875402031BF5168C9
:0E029D0075402831BF516875400631BF516869
:0A02AB0075400131BF5168C2802286
:00000001FF
