:060000000A128A112D2FE7
:100E38007E088A007F0882001C270A128A11800017
:100E4800840A04087D0603190034FF0A0319FE0A00
:100E5800202F83133930FD000730FE003F30FF009C
:100E6800203084000A128A1120270A128A1183016D
:100E78000A128A11852FFC346034DA34F23466346D
:100E8800B634BE34E034FE34F63400340034003472
:100E980000340034003400340034003400340034AA
:100EA80000340034003400340030F1000030F20027
:100EB8007A2F0030F3000030F4000130F3070318F4
:100EC800F40A0030F4077408803AF00080307002A9
:100ED800031D702F79307302031C732F742F612F39
:100EE8000130F1070318F20A0030F207720876029F
:100EF800031D802F710875020318832F842F5D2F1F
:100F0800080003100030031801308316031386000D
:100F18000310003003180130850003100030031857
:100F280001308700013083120313BD000030BE007A
:100F38000230BF000030C0000330B9000030BA00F2
:100F48000430BB000030BC00831203138510071463
:100F5800871407153D08203E840083130008860087
:100F68000130F5000030F6000A128A1158270A12DB
:100F78008A118312031385140710871407153F0875
:100F8800203E84008313000886000130F5000030FD
:100F9800F6000A128A1158270A128A1183120313BB
:100FA80085140714871007153908203E8400831319
:100FB800000886000130F5000030F6000A128A1198
:100FC80058270A128A1183120313851407148714E9
:100FD80007113B08203E8400831300088600013077
:100FE800F5000030F6000A128A1158270A128A11F1
:080FF800A82F0A128A1100283B
:00000001FF
