:02000000802A54
:0100030032CA
:03000B000200C927
:0100130032BA
:01001B0032B2
:0100230032AA
:10002B003251A67543C051325193754450514A75A4
:10003B004452514A754445514A754453514A75448B
:10004B0053514A754420514A754441514A75444EA7
:10005B00514A754459514A754420514A75444B5184
:10006B004A754445514A754459514A758160119EF0
:10007B00D2AF3000FDE54190008E93F53051145115
:10008B002280EF3031323334353637383941424301
:10009B0044454611A311BB22D2A4D2A5D2A6D2A706
:1000AB00753800753921754020C200C201C2032288
:1000BB00438901758A66758CFCD28CD2A922C0E06B
:1000CB00C0D0C083C08211BB511C11E0D082D08341
:1000DB00D0D0D0E032E538B40011C2A0D2A1D2A268
:1000EB00D2A3A2A431C375380121C2B40109A2A5C0
:1000FB0031C375380221C2B40209A2A631C37538C7
:10010B000321C2B40309A2A731C375380421C2B4B9
:10011B000411D2A0C2A1D2A2D2A3A2A431C375381A
:10012B000521C2B40509A2A531C375380621C2B495
:10013B000609A2A631C375380721C2B40709A2A7C5
:10014B0031C375380821C2B40811D2A0D2A1C2A202
:10015B00D2A3A2A431C375380921C2B40909A2A53F
:10016B0031C375380A21C2B40A09A2A631C3753846
:10017B000B21C2B40B09A2A731C375380C21C2B431
:04018B000C11D2A0E1
:10018F00D2A1D2A2C2A3A2A431C375380D21C2B489
:10019F000D09A2A531C375380E21C2B40E09A2A64E
:1001AF0031C375380F21C2B40F04A2A731C37538FC
:1001BF000021C2222000279202E539B4210BA202AE
:1001CF00402F15398538418028D53925A20240099D
:1001DF00753921D200D2038018753921801340055B
:1001EF00754020800CD54009D201C2037540208094
:1001FF0000227536027535FF7534FFD534FDD535C0
:10020F00F7D536F1223001FDC200C20122300302C0
:10021F00B295227543815132519351627543825188
:10022F00325193C281C282854345517A5189E54348
:10023F0023232323F545517A518922D281C2828506
:10024F004445517A5189E54423232323F545517AB7
:10025F00518922D281C282853045517A5189E53048
:10026F0023232323F545517A518922E54554F0F58F
:10027F0042E580540F4542F58022D28300000000F2
:10028F0000C2832275360275353F7534FFD534FDB4
:10029F00D535F7D536F122519351935193754303C9
:1002AF005132519375430351325193754303513278
:0702BF0051937543205132F9
:1002C60051937543285132519375430651325193D8
:0A02D60075430151325193C280229A
:00000001FF
