:02000000802A54
:0100030032CA
:03000B0002009A56
:0100130032BA
:01001B0032B2
:0100230032AA
:10002B00327581601160D2AF512D75303B75313A0D
:10003B0075323A75333A3000FDE54190005093F537
:10004B003051A580F13031323334353637383941C0
:10005B00424344454611671174118C2275303B7530
:10006B00313B75323B75333B22D2A4D2A5D2A6D2FB
:10007B00A7753800753921754020C200C201C20333
:10008B0022438901758A66758CFCD28CD2A922C059
:10009B00E0C0D0C083C082118C51AD11B1D082D0E1
:1000AB0083D0D0D0E032E538B40013C2A0D2A1D2B5
:1000BB00A2D2A331E6A2A431A475380121A3B401C5
:1000CB0009A2A531A475380221A3B40209A2A63155
:1000DB00A475380321A3B4030B31E2A2A731A47595
:1000EB00380421A3B40413D2A0C2A1D2A2D2A3314B
:1000FB00F2A2A431A475380521A3B40509A2A53138
:10010B00A475380621A3B40609A2A631A475380735
:10011B0021A3B4070B31E2A2A731A475380821A3A0
:10012B00B40813D2A0D2A1C2A2D2A331FEA2A43191
:10013B00A475380921A3B40909A2A531A475380AFD
:10014B0021A3B40A09A2A631A475380B21A3B40BC1
:10015B000B31E2A2A731A475380C21A3B40C13D236
:10016B00A0D2A1D2A2C2A3510AA2A431A475380D68
:10017B0021A3B40D09A2A531A475380E21A3B40E89
:01018B00096A
:10018C00A2A631A475380F21A3B40F0631E2A2A7A1
:10019C0031A475380021A3222000279202E539B43E
:1001AC00210BA202402F15398538418028D53925DD
:1001BC00A2024009753921D200D203801875392169
:1001CC0080134005754020800CD54009D201C20334
:1001DC0075402080002275800022900216E530C305
:1001EC00943093F58022900216E531C3943093F548
:1001FC008022900216E532C3943093F5802290024F
:10020C0016E533C3943093F58022FC60DAF266B6BF
:10021C00BEE0FEF600FFFFFFFFFFFFEE3E9C7A9E66
:10022C008E75303B75313B75323B75333B514A759E
:10023C00303A75313A75323A75333A514A2275363D
:10024C00027535FF7534FFD534FDD535F7D536F14C
:10025C00227535557534FFD534FDD535F72205306B
:10026C00E530B43A005001227530300531E531B437
:10027C003A005001227531300532E532B43A005063
:10028C0001227532300533E533B43A0C7530007504
:10029C003100753200753300223001FDC200C201FD
:0702AC0022300302B295228B
:00000001FF
