:02000000802A54
:0100030032CA
:03000B000200836D
:0100130032BA
:01001B0032B2
:0100230032AA
:10002B003231E631F27581601158D2AF3000FDE507
:10003B004190004893F53031CE31DC80EF303132D6
:10004B0033343536373839414243444546115D1117
:10005B007522D2A4D2A5D2A6D2A7753800753921A4
:10006B00754020C200C201C20322438901758A6612
:10007B00758CFCD28CD2A922C0E0C0D0C083C082C8
:10008B00117531D6119AD082D083D0D0D0E032E521
:10009B0038B40011C2A0D2A1D2A2D2A3A2A4317DA6
:1000AB00753801217CB40109A2A5317D7538022177
:1000BB007CB40209A2A6317D753803217CB40309F7
:1000CB00A2A7317D753804217CB40411D2A0C2A142
:1000DB00D2A2D2A3A2A4317D753805217CB4050927
:1000EB00A2A5317D753806217CB40609A2A6317D07
:1000FB00753807217CB40709A2A7317D7538082113
:10010B007CB40811D2A0D2A1C2A2D2A3A2A4317DE9
:10011B00753809217CB40909A2A5317D75380A21EE
:10012B007CB40A09A2A6317D75380B217CB40B096E
:10013B00A2A7317D75380C217CB40C11D2A0D2A1B1
:10014B00D2A2C2A3A2A4317D75380D217CB40D09B6
:10015B00A2A5317D75380E217CB40E09A2A6317D86
:10016B0075380F217CB40F04A2A7317D753800219F
:0E017B007C222000279202E539B4210BA2025B
:10018900402F15398538418028D53925A2024009E3
:10019900753921D200D203801875392180134005A1
:1001A900754020800CD54009D201C20375402080DA
:1001B90000227536027535FF7534FFD534FDD53506
:1001C900F7D536F1223001FDC200C2012230030207
:1001D900B29522510F8530425125512E2243892053
:1001E900758DFDD28E7598522275421B5125512E5F
:1001F90075425B5125512E7542325125512E75425A
:100209004A5125512E2275421B5125512E75425BAB
:100219005125512E7542485125512E223099FD857F
:100229004299C2992275360275353F7534FFD53426
:08023900FDD535F7D536F122A1
:00000001FF
