:030000000208E112
:0C08E100787FE4F6D8FD7581090208005C
:10080000C296E4F508F5091208A20509E509700287
:100810000508D394C8E5086480948040EA12087EF5
:10082000E4F508F5091208CC0509E5097002050888
:10083000D394C8E5086480948040EA12087EE4F509
:1008400008F5091208B70509E50970020508D394EF
:10085000C8E5086480948040EA12087EE4F508F553
:10086000091208CC0509E50970020508D394C8E50A
:0E087000086480948040EA7FF47E01020882D2
:1008A200758901758CFC758A66D28C308DFDB29685
:0508B200C28DC28C2282
:1008B700758901758CF8758ACDD28C308DFDB2960D
:0508C700C28DC28C226D
:1008CC00758901758CFA758A9AD28C308DFDB29629
:0508DC00C28DC28C2258
:04087E007FF47E0184
:10088200E4FDFCD3ED9FEC9E5015E4FBFA0BBB009C
:0F089200010AEB64794A70F50DBD00010C80E49A
:0108A1002234
:00000001FF
