:060000000A128A11762F9E
:100EEC0083010A128A11A72F0030F1000030F200A2
:100EFC009C2F0030F3000030F4000130F30703188E
:100F0C00F40A0030F4077408803AF0008030700264
:100F1C00031D922F79307302031C952F962F832F6C
:100F2C000130F1070318F20A0030F207720876025A
:100F3C00031DA22F710875020318A52FA62F7F2F52
:100F4C0008000310003003180130831603138600C9
:100F5C000310003003180130850003100030031813
:100F6C0001308700831203138510071487140715AB
:100F7C00FC3086000130F5000030F6000A128A11B0
:100F8C007A270A128A118312031385140710871407
:100F9C000715603086000130F5000030F6000A12AB
:100FAC008A117A270A128A118312031385140714E3
:100FBC0087100715DA3086000130F5000030F60096
:100FCC000A128A117A270A128A11831203138514C2
:100FDC00071487140711F23086000130F500003039
:100FEC00F6000A128A117A270A128A11B82F0A12ED
:040FFC008A1100282E
:00000001FF
