:02000000802A54
:0100030032CA
:03000B0002005F91
:0100130032BA
:01001B0032B2
:0100230032AA
:10002B0032319A31A6758160114BD2AF7530307574
:10003B00313075323075333031723117313780F8DA
:10004B00753800115122438901758A66758CFCD273
:10005B008CD2A922C0E0C0D0C083C08211511174D0
:10006B00D082D083D0D0D0E032E538B4000DC2A01E
:10007B00D2A1D2A2D2A37538012116B401057538CD
:10008B00022116B402057538032116B40305753821
:10009B00042116B4040DD2A0C2A1D2A2D2A37538EA
:1000AB00052116B405057538062116B406057538F5
:1000BB00072116B407057538082116B4080DD2A010
:1000CB00D2A1C2A2D2A37538092116B4090575387D
:1000DB000A2116B40A0575380B2116B40B057538B1
:1000EB000C2116B40C0DD2A0D2A1D2A2C2A375388A
:1000FB000D2116B40D0575380E2116B40E05753885
:10010B000F2116B40F0075380021162275360275B3
:10011B0035FF7534FFD534FDD535F7D536F122755E
:10012B0035557534FFD534FDD535F7220530E5301F
:10013B00B43A005001227530300531E531B43A0044
:10014B005001227531300532E532B43A00500122AC
:10015B007532300533E533B43A0C75300075310028
:10016B007532007533002231C3853339319131E259
:10017B00853239319131E2853139319131E2853036
:01018B00393A
:10018C00319131E2223099FD853999C29922438906
:10019C0020758DFDD28E7598522275391B31913197
:1001AC00E275395B319131E2753932319131E27559
:1001BC00394A319131E22275391B319131E275396D
:1001CC005B319131E2753948319131E2223099FD40
:1001DC00853999C2992275360275353F7534FFD52C
:0901EC0034FDD535F7D536F122BA
:00000001FF
