:060000000A128A1110280B
:10000800FF000308F0000408F1000A08F2007E0867
:10001800F3000A128A1113280A128A1173280A1285
:100028008A1155200A128A110130F4020030031C8B
:10003800F503F50275087404031D232824282B28CA
:10004800831203138609E830F4000330F5007308BF
:10005800FE0072088A007108840070088300FF0E91
:100068007F0E0900031000300318013083160313B4
:100078008600031000300318013083120313860032
:10008800E830F4000330F5000A128A1164200A12DD
:100098008A11831203138B170B1751280A128A111E
:1000A8001028FC30831203138F0018308E000130A3
:1000B8009000831603130C14831203130C1008000A
:1000C800FC30831203138F0018308E00013090002B
:1000D800831603130C14831203130C1008008301F6
:0600E8000A128A113628FD
:00000001FF
