:060000000A128A11122809
:10000800FF00030883120313D9000408DA000A0862
:10001800DB007E08DC000A128A115C2C0A128A11A5
:10002800BF2BA62985100714871407150310051977
:100038000314003003180130D700D8015708BE0058
:100048005808BF000A128A1178220A128A11013050
:1000580083120313CC000030CD00E029031085196A
:100068000314003003180130D700D8015708BE0028
:100078005808BF000A128A1178220A128A1102301F
:1000880083120313CC000030CD00E0290310051AB9
:100098000314003003180130D700D8015708BE00F8
:1000A8005808BF000A128A1178220A128A110330EE
:1000B80083120313CC000030CD00E0290310851A09
:1000C8000314003003180130D700D8015708BE00C8
:1000D8005808BF000A128A1178220A128A110430BD
:1000E80083120313CC000030CD00E02985140710DB
:1000F800871407150310051903140030031801307D
:10010800D700D8015708BE005808BF000A128A1144
:1001180078220A128A11053083120313CC000030AA
:10012800CD00E029031085190314003003180130AD
:10013800D700D8015708BE005808BF000A128A1114
:1001480078220A128A11063083120313CC00003079
:10015800CD00E0290310051A0314003003180130FC
:10016800D700D8015708BE005808BF000A128A11E4
:1001780078220A128A11073083120313CC00003048
:10018800CD00E0290310851A03140030031801304C
:10019800D700D8015708BE005808BF000A128A11B4
:1001A80078220A128A11083083120313CC00003017
:1001B800CD00E029851407148710071503100519C9
:1001C8000314003003180130D700D8015708BE00C7
:1001D8005808BF000A128A1178220A128A110930B7
:1001E80083120313CC000030CD00E02903108519D9
:1001F8000314003003180130D700D8015708BE0097
:100208005808BF000A128A1178220A128A110A3085
:1002180083120313CC000030CD00E0290310051A27
:100228000314003003180130D700D8015708BE0066
:100238005808BF000A128A1178220A128A110B3054
:1002480083120313CC000030CD00E0290310851A77
:100258000314003003180130D700D8015708BE0036
:100268005808BF000A128A1178220A128A110C3023
:1002780083120313CC000030CD00E0298514071445
:1002880087140711031005190314003003180130EF
:10029800D700D8015708BE005808BF000A128A11B3
:1002A80078220A128A110D3083120313CC00003011
:1002B800CD00E0290310851903140030031801301C
:1002C800D700D8015708BE005808BF000A128A1183
:1002D80078220A128A110E3083120313CC000030E0
:1002E800CD00E0290310051A03140030031801306B
:1002F800D700D8015708BE005808BF000A128A1153
:1003080078220A128A110F3083120313CC000030AE
:10031800CD00E0290310851A0314003003180130BA
:10032800D700D8015708BE005808BF000A128A1122
:1003380078220A128A11003083120313CC0000308D
:10034800CD00E029DB29831203134C08003A031976
:100358001628013A03193228033A03194A28013AA0
:1003680003196228073A03197A28013A03199628CB
:10037800033A0319AE28013A0319C6280F3A03199C
:10038800DE28013A0319FA28033A03191229013A17
:1003980003192A29073A03194229013A03195E2940
:1003A800033A03197629013A03198E29E0294D08E1
:1003B800003A0319A729E02908000330F3000030A8
:1003C800F4000A128A1157230A128A110330F30023
:1003D8000030F4000A128A1157230A128A110330D6
:1003E800F3000030F4000A128A1157230A128A1106
:1003F8000330F80003300A128A1116240A128A11EF
:100408000330F3000030F4000A128A1157230A124D
:100418008A110330F80003300A128A1116240A12CE
:100428008A110330F3000030F4000A128A115723AE
:100438000A128A110330F80003300A128A111624AE
:100448000A128A110330F3000030F4000A128A11EC
:1004580057230A128A112030F80020300A128A1114
:1004680016240A128A110330F3000030F4000A122D
:100478008A1157230A128A112830F80028300A12E4
:100488008A1116240A128A110330F3000030F4008E
:100498000A128A1157230A128A110630F800063008
:1004A8000A128A1116240A128A110330F300003046
:1004B800F4000A128A1157230A128A11F801031448
:1004C800F80D01300A128A1116240A128A11033013
:1004D800F3000030F4000A128A1157230A128A1115
:1004E8008312031306100800013083120313460613
:1004F8004704031D802A812AA72A3F083E04031DBA
:10050800862A872A8C2A2030C8000030C900E82AA9
:100518004808FF3EC80049080318013EFF3EC900CD
:1005280049084804031D992A9A2AE82A0130CA0072
:100538000030CB000030CE000030CF002030C800A3
:100548000030C900E82A213076067704031DAD2A59
:10055800AE2AC32A3F083E04031DB32AB42AE82A58
:100568007608FF3EF60077080318013EFF3EF700C5
:100578004D08C501C5074C08C401C407E82A760818
:10058800FF3EF60077080318013EFF3EF7007708A4
:100598007604031DD02AD12AE82A3F083E04031D09
:1005A800D62AD72AE42A0130C6000030C700013015
:1005B800CE000030CF002130F6000030F700E82AE6
:1005C8002130F6000030F70008000310003003184F
:1005D80001308316031386003C3085000310003079
:1005E80003180130870006309F000A128A11E121A2
:1005F8000A128A110A128A11F9240A128A1183121C
:1006080003138B170B1780300A128A1116240A124B
:100618008A11003083120313C0000030C100831216
:1006280003134008A03E8400831300080A128A11AD
:10063800EF230A128A11013083120313C00703182B
:10064800C10A0030C1074108803AF50080307502C0
:10065800031D302B0D304002031C332B342B132B7E
:1006680001308312031346064704031D3C2B3D2B20
:10067800342B4508BD01BD074408BC01BC073C0834
:10068800203E840083130008F9000A128A1194247A
:100698000A128A110A128A11D5240A128A11342BD5
:1006A8000A128A111228003083120313D300003073
:1006B800D400772B0030D5000030D6000130D507A4
:1006C8000318D60A0030D6070030560279300319CD
:1006D8005502031C702B712B622B0130D3070318B2
:1006E800D40A0030D4077408F1007308F000013010
:1006F800F2000310F00DF10DF20B7D2B540871027E
:10070800031D882B5308700203188B2B8C2B5E2B30
:10071800080050345234453453345334203441346F
:100728004E34593420344B34453459340034003471
:100738000034003400340034003400340034003411
:1007480000340034FC346034DA34F2346634B634BD
:10075800BE34E034FE34F634FF34FF34FF34FF3463
:10076800FF34FF34FF34EE343E349C347A349E3404
:100778008E3400340034F601F701F80183133C305D
:10078800840053300A128A1104250A128A110A12A7
:100798008A1111250A128A11F9003C30FD00043033
:1007A800FE007830FF00203084000A128A11AA2443
:1007B8000A128A11D230FD000330FE008D30FF008E
:1007C800A03084000A128A11AA240A128A1183010D
:1007D8000A128A11E92AF3008312031386140611F8
:1007E80073080A128A11EE240A128A110A128A114F
:1007F8000C250A128A117308F20003300310F20D57
:10080800FF3E031D022C0310720DF30073080A1239
:100818008A11EE240A128A110A128A110C250A1268
:100828008A110800F3008312031306118610730857
:100838000A128A11EE240A128A110A128A110C2548
:100848000A128A117308F20003300310F20DFF3EFA
:10085800031D292C0310720DF30073080A128A1164
:10086800EE240A128A110A128A110C250A128A1118
:100878000800831203130515851505168516003023
:10088800CC000030CD002130F6000030F7002030D9
:10089800C8000030C9000030C6000030C700003072
:1008A800CA000030CB000030CE000030CF00080076
:1008B8000A128A11B7240A128A110A128A11E2242A
:1008C8000A128A110A128A1115200A128A11831231
:1008D80003135C08FE005B088A005A088400590864
:1008E8008300FF0E7F0E0900303431343234333444
:1008F8003434353436343734383439344134423486
:10090800433444344534463400340034003400342D
:10091800003400340034003400343034303430349F
:100928000130831203134A064B04031D9C2C9D2C93
:10093800942C0030C6000030C7000030CA000030D8
:10094800CB0008007E088A007F088200A6240A12CD
:100958008A118000840A04087D0603190034FF0AFE
:100968000319FE0AAA2CFC30831203138F001830D7
:100978008E0001309000831603130C1483120313A6
:100988000C100800FC30831203138F0018308E00FF
:1009980001309000831603130C14831203130C10F8
:1009A8000800C0300A128A1116240A128A1179081E
:1009B8000A128A11EF230A128A11080001308312E1
:1009C80003134E064F04031DEA2CEB2CED2C2030AC
:1009D80087060800F1008312031306080F39F00098
:1009E8007108F0397004860008000A128A113D2443
:1009F8000A128A110A128A11C6240A128A110800D8
:100A080064008001840A0406031900340406052DD5
:0C0A180083120313861586110800313488
:00000001FF
