:060000000A128A11AA2F6A
:100F540083010A128A11AE2F0310003003180130E6
:100F64008316031386000F30831203138600F430B4
:100F7400F5000130F6000A128A11D3270A128A11E9
:100F8400F030831203138600F430F5000130F600CC
:100F94000A128A11D3270A128A11B52F0A128A114A
:100FA40000280030F1000030F200F52F0030F3008B
:100FB4000030F4000130F3070318F40A0030F4079A
:100FC4007408803AF00080307002031DEB2F7930F2
:100FD4007302031CEE2FEF2FDC2F0130F1070318EF
:100FE400F20A0030F20772087602031DFB2F710823
:0C0FF40075020318FE2FFF2FD82F0800F5
:00000001FF
