:02000000802A54
:0100030032CA
:03000B000200826E
:0100130032BA
:01001B0032B2
:0100230032AA
:10002B0032758160113DD2AF514A711851CD51E9F2
:10003B0080FA116B1146115311792275305C7531B1
:10004B005C75325C75335C22D2A4D2A5D2A6D2A742
:10005B00753800753921754020C200C201C20522D6
:10006B00438901758A66758CFCD28CD2A9227542A4
:10007B00E8754304D20422C0E0C0D0C083C0821113
:10008B006B11A2712511B83004045187C204D082C0
:10009B00D083D0D0D0E032200412D5420FD5430903
:1000AB007543047542E8D204227542FF22E538B449
:1000BB000013C2A0D2A1D2A2D2A331EDA2A431AB24
:1000CB0075380121AAB40109A2A531AB75380221FB
:1000DB00AAB40209A2A631AB75380321AAB4030B4B
:1000EB0031E9A2A731AB75380421AAB40413D2A00D
:1000FB00C2A1D2A2D2A331F9A2A431AB753805218A
:10010B00AAB40509A2A531AB75380621AAB4060914
:10011B00A2A631AB75380721AAB4070B31E9A2A708
:10012B0031AB75380821AAB40813D2A0D2A1C2A250
:10013B00D2A35105A2A431AB75380921AAB4090980
:10014B00A2A531AB75380A21AAB40A09A2A631AB14
:10015B0075380B21AAB40B0B31E9A2A731AB75385B
:0E016B000C21AAB40C13D2A0D2A1D2A2C2A31E
:100179005111A2A431AB75380D21AAB40D09A2A55C
:1001890031AB75380E21AAB40E09A2A631AB753868
:100199000F21AAB40F0631E9A2A731AB75380021A6
:1001A900AA222000279202E539B4210BA202402F8E
:1001B90015398538418028D53925A2024009753974
:1001C90021D200D205801875392180134005754068
:1001D90020800CD54009D201C2057540208000223B
:1001E9007580002290021DE530C3943093F580227A
:1001F90090021DE531C3943093F5802290021DE5EC
:1002090032C3943093F5802290021DE533C39430B4
:1002190093F58022FC60DAF266B6BEE0FEF6FFFFD7
:10022900FFFFFFFFFFEE3E9C7A9E8EBC6E0C700EA8
:100239001CAA2A3ACED60AB61E7C38B86266920043
:10024900FF75303B75313B75323B75333B516775F3
:10025900303A75313A75323A75333A516722753603
:10026900027535FF7534FFD534FDD535F7D536F12F
:10027900227535557534FFD534FDD535F722300350
:100289003A0530E530B43A00500122753030053175
:10029900E531B43A005001227531300532E532B406
:1002A9003A005001227532300533E533B43A0C7502
:1002B9003000753100753200753300223001FDC2FE
:1002C90000C201223000FDE5419002D993F5412297
:1002D9003031323334353637383941424344454673
:1002E900E541B441047103800EB4420471068007EC
:0902F900B443047109800051C5F1
:1003020022D20322C20322C2037530307531307506
:1003120032307533302275305B75315B753257750B
:09032200335322300502B295228A
:00000001FF
