:0400000500000000F7
:020000040000FA
:1000000018F09FE518F09FE518F09FE518F09FE5C0
:1000100018F09FE50000A0E1F0FF1FE518F09FE554
:1000200058000000400000004400000048000000AC
:100030004C000000000000005000000054000000D0
:10004000FEFFFFEAFEFFFFEAFEFFFFEAFEFFFFEA18
:10005000FEFFFFEAFEFFFFEAA0009FE5AA10A0E373
:100060005520A0E32430A0E3043080E50130A0E374
:10007000003080E50C1080E50C2080E5083090E52C
:10008000013B13E2FCFFFF0A0330A0E3003080E5F0
:100090000C1080E50C2080E564009FE50410A0E3CF
:1000A000041080E50210A0E3001080E554009FE5F5
:1000B000DBF021E300D0A0E1000040E2D7F021E333
:1000C00000D0A0E1000040E2D1F021E300D0A0E1A7
:1000D000000040E2D2F021E300D0A0E1800040E245
:1000E000D3F021E300D0A0E1080040E210F021E3CA
:1000F00000D0A0E101AB4DE20C009FE510FF2FE125
:1001000080C01FE000C01FE0080500401001000093
:10011000000000EB9C1000EB2C008FE2000C90E83C
:1001200000A08AE000B08BE001704AE20B005AE1C7
:100130000000001A941000EB0F00BAE818E04FE23C
:10014000010013E303F0471013FF2FE15C000000F0
:100150007C000000102052E27800B0287800A1282E
:10016000FBFFFF8A822EB0E13000B0283000A128CA
:1001700000409045004081451EFF2FE10030B0E374
:100180000040B0E30050B0E30060B0E3102052E262
:100190007800A128FCFFFF8A822EB0E13000A12860
:1001A000003081451EFF2FE1E845000000000040BF
:1001B0001C00000054010000044600001C00004028
:1001C000EC0400007C0100000000000000000000C2
:1001D000000000000000000000000000000000001F
:1001E000000000000000000000000000000000000F
:1001F00000000000000000000000000000000000FF
:1002000000000000000000000000000000000000EE
:1041C00000000000000000007847C04604309FE572
:1041D00003308FE013FF2FE1C90300000C009FE5BF
:1041E0000C109FE504209FE508309FE51EFF2FE19E
:1041F0008000004080040040800000400020A0E3D8
:10420000050000EA0010A0E3000000EA011081E2CE
:104210004B0E51E3FCFFFF9A012082E28030A0E1C7
:10422000020053E1F6FFFF2A1EFF2FE1F0402DE9C7
:104230000140A0E30250A0E30360A0E30470A0E308
:104240000000A0E3F4109FE50001C1E51D1841E264
:10425000000081E5040081E5FF08A0E3C014C1E18E
:10426000080081E5340000EA0108A0E3D0109FE5D2
:10427000180081E5CC009FE50400D0E70008A0E12C
:10428000040081E50500A0E3DBFFFFEBB4009FE540
:104290000400D0E70008A0E1A4109FE50C0081E530
:1042A0000208A0E3180081E598009FE50500D0E72B
:1042B0000008A0E1040081E50500A0E3CEFFFFEBCC
:1042C00080009FE50500D0E70008A0E170109FE5A1
:1042D0000C0081E50107A0E3180081E564009FE57B
:1042E0000600D0E70008A0E1040081E50500A0E396
:1042F000C1FFFFEB4C009FE50600D0E70008A0E1FE
:104300003C109FE50C0081E50207A0E3180081E561
:1043100030009FE50700D0E70008A0E1040081E538
:104320000500A0E3B4FFFFEB18009FE50700D0E70E
:104330000008A0E108109FE50C0081E5C9FFFFEA35
:1043400000C01FE0008002E0000000401EFF2FE1DF
:104350000E40A0E1260000EB04E0A0E10D402DE9B5
:104360003B0000EB0040B0E10D40BDE80210B0E1C1
:104370001EFF2FE10020B0E110402DE90000B0E366
:104380000000A0E11040BDE81EFF2FE10000A0E109
:10439000EEFFFFEB03002DE9730000EB0300BDE827
:1043A0003B0000EB0F002DE9720000EB0F00BDE8B1
:1043B0001CC09FE50FC08CE001001CE30DE08F12D4
:1043C0000FE0A0011CFF2FE101C08FE21CFF2FE1D5
:1043D00000F05AF870FEFFFF01402DE90000A0E157
:1043E000740000EB0140BDE8000000EB0000E0E3DA
:1043F0001B0000EB0E50A0E11F0000EB05E0A0E168
:104400000050B0E10D10A0E10A30A0E10700C0E3C8
:1044100000D0A0E160D08DE220402DE96EFFFFEBDF
:104420002040BDE80060A0E30070A0E30080A0E3AE
:1044300000B0A0E30710C1E305C0A0E1C009ACE8EB
:10444000C009ACE8C009ACE8C009ACE801D0A0E103
:104450001EFF2FE104009FE51EFF2FE11EFF2FE14D
:104460002C0000400C109FE51800A0E3563412EF1A
:104470001EFF2FE1140100002600020000009FE54E
:104480001EFF2FE11C0000400400C046C046200073
:1044900000F098F801C08FE21CFF2FE1F0B5050095
:1044A0000C0085B000F092F8002001950294C046FF
:1044B000C046039001A8FFF787FE040001A80D0085
:1044C000009303C81600C046C046C046C046C0465A
:1044D000C04600210800C046C046070000F056F85C
:1044E0000490002107600800C046C046411C0498A3
:1044F000416000210800C046C04601000498816068
:1045000000210800C046C04601000498C160002197
:104510000800C046C046010004980161C046C0467C
:10452000C046C046C046C046C046C046C046C0465B
:10453000C046C046C046C046C046C046C046C0464B
:10454000009B05B02000049C29003200A646F0BC68
:1045500001B0704710B50020C046C046C046C046F6
:10456000C046C04610BC08BC184700000000E0E38D
:104570000210E0E31EFF2FE110402DE90000A0E152
:104580001040BDE81EFF2FE11EFF2FE17847C04617
:1045900004009FE51EFF2FE11EFF2FE13C000040BD
:1045A00010B410BC7047000004009FE51EFF2FE10F
:1045B0001EFF2FE12000004000C09FE51CFF2FE1FF
:1045C000554500007847C04682FFFFEA7847C0465D
:1045D00010402DE9F3FFFFEB0010A0E3001080E591
:1045E0001040BDE81EFF2FE1FC60DAF266B6BEE0C7
:1045F000FEF60000000000000000000000000000C7
:0446000000000000B6
:00000001FF
