:03000000020A8869
:0C0A8800787FE4F6D8FD758116020A7A2A
:10086C00120A047F017E00120968120A047F017EBD
:10087C0000120968120A047F017E001209687509CA
:10088C0020AF09120A097F017E0012096875092838
:10089C00AF09120A097F017E00120968750906AFBB
:1008AC0009120A097F017E00120968750901AF0956
:0D08BC00120A097F017E00120968C2802225
:050A0400750903AF09B4
:100A09008F16C281C282120A6A120A9FE516C4545D
:0A0A1900F0F516FF120A6A020A9FA8
:0A0A9F00D2830000000000C2832291
:100A6A00EF54F0F50BE580540FF50D450BF5802298
:100A4000AE07D281C282120A6A120A9FEEC454F023
:080A5000FEFF120A6A020A9F70
:100952002430FF120A407F027E001209687F3A1299
:060962000A407F027E0046
:10096800E4FDFCC3ED9FEC9E5015E4FBFA0BBB00C5
:0F097800010AEB64784A70F50DBD00010C80E4B4
:01098700224D
:1008C900D297D2962097187F8F120A097F057E004A
:1008D9001209687F24120A407F057E0012096820E8
:1008E90096187FCF120A097F057E001209687F2AB0
:1008F900120A407F057E0012096800000000C297B5
:0709090000000000C296226D
:1009B4007E80E4C296FCEF5EFDBD8004D297800287
:1009C400C297EF25E0FF0000000000D2960000006F
:0709D40000C2960CBC08DF15
:0109DB0022F9
:100988007F80E4FEC2960000000000D297FDD29658
:100998000000000000309703EF4206C296000000F6
:0B09A80000EFC313FF0DBD08E5AF0614
:0109B3002221
:100A5800C297D2960000000000D29700000000C2A2
:020A68009622D4
:0B0A23001209B4120A2EE4FF1209B4FD
:100A2E00C297C2960000000000D29600000000C2DD
:020A3E009622FE
:0B0A9400D297D29600000000C296220C
:0E0A7A0012086C1209DC12091012080080F834
:1009DC001208C97FA2120A23E4FF120A237F5512C0
:1009EC0009B4120A2E7F591209B4120A2E7F121260
:0809FC0009B4120A2E020A5888
:100910001208C97FA21209B4120A2E7F021209B46A
:10092000120A2E1208C97FA31209B4120A2E120944
:10093000888F08120A2E53087F1209888F0C120A1A
:100940002E530C7F1209888F0A120A94530A3F0211
:020950000A5843
:100800007F80120A09120964E50A54F0F50EC454F7
:100810000FF50EE50A540FF50FE50C54F0F512C470
:10082000540FF512E50C540FF513E50854F0F514C8
:10083000C4540FF514E508540FF515E50E2430FFE8
:10084000120961E50F120952E5122430FF12096105
:10085000E513120952E5142430FF120961E515244D
:0C08600030FF120A407F027E000209688F
:00000001FF
