:060000000A128A11D12E44
:100D80007E088A007F088200C0260A128A1180002D
:100D9000840A04087D0603190034FF0A0319FE0AB9
:100DA000C42EFA01FB01FC01FD0183133930FD0063
:100DB0000630FE00E730FF00203084000A128A115E
:100DC000C4260A128A1183010A128A112D2FFC34BB
:100DD0006034DA34F2346634B634BE34E034FE348F
:100DE000F63400340034003400340034003400346D
:100DF0000034003400340034003400340034003453
:100E00000030F1000030F200222F0030F3000030FB
:100E1000F4000130F3070318F40A0030F4077408F3
:100E2000803AF00080307002031D182F7930730271
:100E3000031C1B2F1C2F092F0130F1070318F20A86
:100E40000030F20772087602031D282F7108750220
:100E500003182B2F2C2F052F080003100030031828
:100E6000013083160313860003100030031801308D
:100E70008500031000300318013087000030F800AF
:100E80000030F9000A128A11AB270A128A110130C8
:100E9000F8070318F90A0030F9077908803AF700D3
:100EA00080307702031D562F06307802031C592F1D
:100EB0005A2F422F0A128A1163270A128A113E2FD3
:100EC0000A128A1100287A08013EFA000A307A02D2
:100ED000031C6B2F6C2FAA2F031000300318013056
:100EE000FA007B08013EFB000A307B02031C792FCD
:100EF0007A2FAA2F0310003003180130FB007C0862
:100F0000013EFC000A307C02031C872F882FAA2F89
:100F10000310003003180130FC007D08013EFD0085
:100F20000A307D02031C952F962FAA2F0310003044
:100F300003180130FA000310003003180130FB00E1
:100F40000310003003180130FC00031000300318B8
:100F50000130FD0008008312031385100714871465
:100F600007157A08203E84008313000886000130AC
:100F7000F5000030F6000A128A1100270A128A11C1
:100F80008312031385140710871407157B08203E6E
:100F900084008313000886000130F5000030F6005D
:100FA0000A128A1100270A128A1183120313851468
:100FB0000714871007157C08203E8400831300085F
:100FC00086000130F5000030F6000A128A11002771
:100FD0000A128A1183120313851407148714071148
:100FE0007D08203E84008313000886000130F50050
:100FF0000030F6000A128A1100270A128A1108002E
:00000001FF
