:030000000209AB47
:0C09AB00787FE4F6D8FD75811102097711
:100847001209001208DC1209001208DC1209001252
:1008570008DC750A20AF0A1209051208DC750A2898
:10086700AF0A1209051208DC750A06AF0A12090554
:100877001208DC750A01AF0A1209051208DCC280EA
:01088700224E
:05090000750A03AF0AB7
:100905008F11C281C28212099B1209C2E511C4541A
:0A091500F0F511FF12099B0209C260
:0A09C200D2830000000000C283226F
:10099B00EF54F0F50BE580540FF50C450BF5802269
:10093800AE07D281C28212099B1209C2EEC454F0DA
:08094800FEFF12099B0209C227
:0408DC007F017E001A
:1008E000E4FDFCC3ED9FEC9E5015E4FBFA0BBB004E
:0F08F000010AEB64784A70F50DBD00010C80E43D
:0108FF0022D6
:10080000D297D2962097187F8F1209057F057E0018
:100810001208E07F241209387F057E001208E020CC
:1008200096187FCF1209057F057E001208E07F2A07
:100830001209387F057E001208E000000000C29710
:0708400000000000C2962237
:1008B4007E80E4C296FCEF5EFDBD8004D297800288
:1008C400C297EF25E0FF0000000000D29600000070
:0708D40000C2960CBC08DF16
:0108DB0022FA
:100888007F80E4FEC2960000000000D297FDD29659
:100898000000000000309703EF4206C296000000F7
:0B08A80000EFC313FF0DBD08E5AF0615
:0108B3002222
:10096500C297D2960000000000D29700000000C296
:020975009622C8
:030950001208B4D6
:10095300C297C2960000000000D29600000000C2B9
:020963009622DA
:0B09B700D297D29600000000C29622EA
:10097700120847E4FF12098912091F8F09850980A8
:0209870080F1FD
:100989008F101208007F40120950AF10120950024F
:020999000965EE
:10091F001208007F411208B41209531208888F0879
:09092F001209B7120965AF082294
:00000001FF
