:0400000500000000F7
:020000040000FA
:1000000018F09FE518F09FE518F09FE518F09FE5C0
:1000100018F09FE50000A0E1F0FF1FE518F09FE554
:1000200058000000400000004400000048000000AC
:100030004C000000000000005000000054000000D0
:10004000FEFFFFEAFEFFFFEAFEFFFFEAFEFFFFEA18
:10005000FEFFFFEAFEFFFFEAA0009FE5AA10A0E373
:100060005520A0E32430A0E3043080E50130A0E374
:10007000003080E50C1080E50C2080E5083090E52C
:10008000013B13E2FCFFFF0A0330A0E3003080E5F0
:100090000C1080E50C2080E564009FE50410A0E3CF
:1000A000041080E50210A0E3001080E554009FE5F5
:1000B000DBF021E300D0A0E1000040E2D7F021E333
:1000C00000D0A0E1000040E2D1F021E300D0A0E1A7
:1000D000000040E2D2F021E300D0A0E1800040E245
:1000E000D3F021E300D0A0E1080040E210F021E3CA
:1000F00000D0A0E101AB4DE20C009FE510FF2FE125
:1001000080C01FE000C01FE0F004004010010000AC
:10011000000000EB991000EB2C008FE2000C90E83F
:1001200000A08AE000B08BE001704AE20B005AE1C7
:100130000000001A911000EB0F00BAE818E04FE23F
:10014000010013E303F0471013FF2FE15C000000F0
:100150007C000000102052E27800B0287800A1282E
:10016000FBFFFF8A822EB0E13000B0283000A128CA
:1001700000409045004081451EFF2FE10030B0E374
:100180000040B0E30050B0E30060B0E3102052E262
:100190007800A128FCFFFF8A822EB0E13000A12860
:1001A000003081451EFF2FE1DC45000000000040CB
:1001B0000800000054010000E44500000800004071
:1001C000E80400007C0100000000000000000000C6
:1001D000000000000000000000000000000000001F
:1001E000000000000000000000000000000000000F
:1001F00000000000000000000000000000000000FF
:1002000000000000000000000000000000000000EE
:1041C00000000000000000007847C04604309FE572
:1041D00003308FE013FF2FE1BD0300000C009FE5CB
:1041E0000C109FE504209FE508309FE51EFF2FE19E
:1041F0006800004068040040680000400000A0E340
:104200001C119FE5700081E5080081E514019FE520
:10421000180081E50700A0E3140081E50100A0E398
:10422000040081E51EFF2FE103502DE9F2FFFFEBB3
:10423000F4009FE5000090E5010040E2E8109FE5F2
:10424000000081E5000081E2000090E5000050E3FD
:104250001100001AD4009FE5000090E5D0109FE502
:10426000001091E5010050E10400001AC0009FE534
:10427000000090E5B4109FE50C0081E5030000EA22
:10428000AC009FE5000090E5A0109FE5040081E5EB
:10429000A0009FE590109FE5000081E50000A0E3ED
:1042A000D00F00E50350BDE804F05EE204E02DE528
:1042B0000000A0E380109FE50001C1E51D1841E268
:1042C000000081E5040081E5FF08A0E3C014C1E11E
:1042D000080081E50000A0E3F40F00E51000A0E372
:1042E0000010A0E3F00F01E52400A0E3000E01E5BB
:1042F000D0004FE2000F01E5FF08A0E32C109FE57E
:104300000C0081E528109FE5000081E524009FE571
:1043100014109FE5000081E5B7FFFFEB0000A0E16E
:10432000FEFFFFEA004000E02F3B000004000040D9
:10433000008002E0000000401027000000C01FE0E5
:104340001EFF2FE10E40A0E1260000EB04E0A0E1FB
:104350000D402DE93B0000EB0040B0E10D40BDE811
:104360000210B0E11EFF2FE10020B0E110402DE966
:104370000000B0E30000A0E11040BDE81EFF2FE107
:104380000000A0E1EEFFFFEB03002DE9730000EB5E
:104390000300BDE83B0000EB0F002DE9720000EBCD
:1043A0000F00BDE81CC09FE50FC08CE001001CE3BE
:1043B0000DE08F120FE0A0011CFF2FE101C08FE282
:1043C0001CFF2FE100F05AF8FCFEFFFF01402DE931
:1043D0000000A0E1740000EB0140BDE8000000EB2C
:1043E0000000E0E31B0000EB0E50A0E11F0000EB1B
:1043F00005E0A0E10050B0E10D10A0E10A30A0E11D
:104400000700C0E300D0A0E160D08DE220402DE99C
:1044100071FFFFEB2040BDE80060A0E30070A0E367
:104420000080A0E300B0A0E30710C1E305C0A0E155
:10443000C009ACE8C009ACE8C009ACE8C009ACE808
:1044400001D0A0E11EFF2FE104009FE51EFF2FE138
:104450001EFF2FE1180000400C109FE51800A0E39C
:10446000563412EF1EFF2FE1140100002600020057
:1044700000009FE51EFF2FE1080000400400C04639
:10448000C046200000F098F801C08FE21CFF2FE129
:10449000F0B505000C0085B000F092F80020019501
:1044A0000294C046C046039001A8FFF78DFE0400A9
:1044B00001A80D00009303C81600C046C046C046C0
:1044C000C046C046C04600210800C046C04607009E
:1044D00000F056F80490002107600800C046C0466E
:1044E000411C0498416000210800C046C0460100FC
:1044F0000498816000210800C046C046010004986D
:10450000C16000210800C046C04601000498016156
:10451000C046C046C046C046C046C046C046C0466B
:10452000C046C046C046C046C046C046C046C0465B
:10453000C046C046009B05B02000049C2900320004
:10454000A646F0BC01B0704710B50020C046C0467A
:10455000C046C046C046C04610BC08BC1847000054
:104560000000E0E30210E0E31EFF2FE110402DE920
:104570000000A0E11040BDE81EFF2FE11EFF2FE16B
:104580007847C04604009FE51EFF2FE11EFF2FE184
:104590002800004010B410BC7047000004009FE5E4
:1045A0001EFF2FE11EFF2FE10C00004000C09FE521
:1045B0001CFF2FE1494500007847C04682FFFFEA13
:1045C0007847C04610402DE9F3FFFFEB0010A0E351
:1045D000001080E51040BDE81EFF2FE10000000044
:0445E00000000000D7
:00000001FF
