:060000000A128A11122809
:10000800FF00030883160313A0000408A1000A08D0
:10001800A2007E08A3000A128A112A2B0A128A114A
:10002800B32BDC2985100714871407150A128A11C7
:100038006D240A128A11031083120313051903147D
:10004800003003180130F600F7017608D40077086D
:10005800D5000A128A1117220A128A110130831256
:100068000313DC000030DD00162A03108519031481
:10007800003003180130F600F7017608D40077083D
:10008800D5000A128A1117220A128A110230831225
:100098000313DC000030DD00162A0310051A0314D0
:1000A800003003180130F600F7017608D40077080D
:1000B800D5000A128A1117220A128A1103308312F4
:1000C8000313DC000030DD00162A0A128A11D1243D
:1000D8000A128A11031083120313851A03140030BD
:1000E80003180130F600F7017608D4007708D50028
:1000F8000A128A1117220A128A1104308312031372
:10010800DC000030DD00162A851407108714071557
:100118000A128A115D240A128A110310831203132A
:1001280005190314003003180130F600F7017608AA
:10013800D4007708D5000A128A1117220A128A11E8
:10014800053083120313DC000030DD00162A03108B
:1001580085190314003003180130F600F7017608FA
:10016800D4007708D5000A128A1117220A128A11B8
:10017800063083120313DC000030DD00162A03105A
:10018800051A0314003003180130F600F701760849
:10019800D4007708D5000A128A1117220A128A1188
:1001A800073083120313DC000030DD00162A0A1220
:1001B8008A11D1240A128A11031083120313851A93
:1001C8000314003003180130F600F7017608D40054
:1001D8007708D5000A128A1117220A128A110830E4
:1001E80083120313DC000030DD00162A851407147F
:1001F800871007150A128A113D240A128A11031062
:100208008312031305190314003003180130F60094
:10021800F7017608D4007708D5000A128A11172248
:100228000A128A11093083120313DC000030DD0042
:10023800162A031085190314003003180130F6003C
:10024800F7017608D4007708D5000A128A11172218
:100258000A128A110A3083120313DC000030DD0011
:10026800162A0310051A0314003003180130F6008B
:10027800F7017608D4007708D5000A128A111722E8
:100288000A128A110B3083120313DC000030DD00E0
:10029800162A0A128A11D1240A128A11031083120B
:1002A8000313851A0314003003180130F600F70110
:1002B8007608D4007708D5000A128A1117220A1284
:1002C8008A110C3083120313DC000030DD00162A7B
:1002D80085140714871407110A128A117D240A123B
:1002E8008A1103108312031305190314003003182D
:1002F8000130F600F7017608D4007708D5000A1215
:100308008A1117220A128A110D3083120313DC0096
:100318000030DD00162A0310851903140030031875
:100328000130F600F7017608D4007708D5000A12E4
:100338008A1117220A128A110E3083120313DC0065
:100348000030DD00162A0310051A031400300318C4
:100358000130F600F7017608D4007708D5000A12B4
:100368008A1117220A128A110F3083120313DC0034
:100378000030DD00162A0310851A03140030031814
:100388000130F600F7017608D4007708D5000A1284
:100398008A1117220A128A110A128A11D1240A1202
:1003A8008A11003083120313DC000030DD00162AA6
:1003B800112A831203135C08003A03191628013A1C
:1003C80003193928033A03195128013A03196928EE
:1003D800073A03198828013A0319AB28033A031985
:1003E800C328013A0319DB280F3A0319FA28013AFE
:1003F80003191D29033A03193529013A03194D290F
:10040800073A03196C29013A03198F29033A03198A
:10041800A729013A0319BF29162A5D08003A0319CA
:10042800DD29162A080001308312031358065904DF
:10043800031D1F2A202A462A55085404031D252A6D
:10044800262A2B2A2030EA000030EB00872A6A0887
:10045800FF3EEA006B080318013EFF3EEB006B0805
:100468006A04031D382A392A872A0130DA00003045
:10047800DB000030DE000030DF002030EA00003012
:10048800EB00872A213068066904031D4C2A4D2A8F
:10049800622A55085404031D522A532A872A6808D9
:1004A800FF3EE80069080318013EFF3EE9005D08C9
:1004B800D701D7075C08D601D607872A6808FF3E08
:1004C800E80069080318013EFF3EE900690868046E
:1004D800031D6F2A702A872A55085404031D752A9C
:1004E800762A832A0130D8000030D9000130DE0096
:1004F8000030DF002130E8000030E900872A213091
:10050800E8000030E9000800013083120313600698
:100518006104031D902A912AC42A7008013EF00044
:100528003A307002031C992A9A2AC42A3030F00003
:100538007108013EF1003A307102031CA42AA52A71
:10054800C42A3030F1007208013EF2003A307202DB
:10055800031CAF2AB02AC42A3030F2007308013EC7
:10056800F3003A307302031CBA2ABB2AC42A30307B
:10057800F0003030F1003030F2003030F300C42A9F
:1005880008000130831203136C066D040319CD2A89
:10059800CE2AF72AFF30E6070318E70AFF30E707F5
:1005A80067086604031DD92ADA2AF72AFF30E40708
:1005B8000318E50AFF30E507650864040319E52A0E
:1005C800E62AEB2AFF30E6000030E700F72AE83099
:1005D800E6000030E7000430E4000030E5000130B8
:1005E800EC000030ED00080030343134323433345C
:1005F8003434353436343734383439344134423489
:100608004334443445344634003400340034003430
:1006180000340034003400340034FC346034DA34FC
:10062800F2346634B634BE34E034FE34F634FF3483
:10063800FF34FF34FF34FF34FF34FF34EE343E34EC
:100648009C347A349E348E34003400340A128A1171
:10065800AB240A128A110A128A11C5220A128A11B7
:100668000A128A1115200A128A1101308312031303
:100678006C066D04031D412B422B4D2B0A128A1167
:1006880088220A128A11003083120313EC0000300A
:10069800ED00831603132308FE0022088A002108B0
:1006A800840020088300FF0E7F0E0900031000302D
:1006B800031801308316031386003C3085000310AD
:1006C800003003180130870006309F000030831285
:1006D8000313E0000030E1000A128A114D240A12C7
:1006E8008A11831203138B170B170A128A11FF231F
:1006F8000A128A110A128A1187230A128A11792B7F
:100708000A128A1112289A2B0A128A11E0240A1254
:100718008A11AD2B0A128A11D9240A128A11AD2B1B
:100728000A128A118D240A128A11AD2BA82B831262
:1007380003135608413A0319882B033A03198E2BE1
:10074800013A0319942BAD2B5708003A03199B2B38
:10075800AD2B0A128A111A240A128A110800F8010C
:10076800F90183135230840064300A128A11C924B3
:100778000A128A117430FD000430FE00E730FF00D1
:10078800703084000A128A1130240A128A115230F9
:10079800FD000230FE00F830FF00203084000A120D
:1007A8008A1130240A128A1183010A128A115A2BDB
:1007B8008312031305158515051685160030E0000C
:1007C8000030E1000030DC000030DD002130E800BE
:1007D8000030E9002030EA000030EB000030D8009B
:1007E8000030D9000030DA000030DB000030DE00D5
:1007F8000030DF0008000130831203135806590443
:10080800031D072C082CFF2B5708D301D3075608C4
:10081800D201D2075208203E840083130008F40056
:10082800F5017408D6007508D70008000130831256
:1008380003135A065B04031D222C232C1A2C0030A8
:10084800D8000030D9000030DA000030DB000800A2
:100858007E088A007F0882002C240A128A118000F0
:10086800840A04087D0603190034FF0A0319FE0AE6
:10087800302C7208D03EF800FF3003180030F90021
:100888007808393E84008313000883120313860016
:1008980008000A128A11DC230A128A110A128A1124
:1008A800BA240A128A110A128A119C240A128A117D
:1008B80008007108D03EF800FF3003180030F90036
:1008C8007808393E840083130008831203138600D6
:1008D80008007008D03EF800FF3003180030F90017
:1008E8007808393E840083130008831203138600B6
:1008F80008007308D03EF800FF3003180030F900F4
:100908007808393E84008313000883120313860095
:100918000800003083120313E0000030E10030309B
:10092800F0003030F1003030F2003030F3000800D1
:10093800E83083120313E6000030E7000430E400D7
:100948000030E5000130EC000030ED000800FC301C
:10095800831203138F0018308E0001309000831625
:1009680003130C14831203130C100800FC308312B9
:1009780003138F0018308E00013090008316031384
:100988000C14831203130C10080064008001840AFD
:100998000406031900340406CA2C03100030031897
:1009A80001308312031386000800003083120313FA
:1009B800E0000030E1000800013083120313E0007A
:0E09C8000030E1000800303430343034303478
:00000001FF
